:100000000C9434000C9446000C9446000C9446006A
:100010000C9446000C9446000C9446000C94460048
:100020000C9446000C9446000C9446000C943C0141
:100030000C9446000C9446000C9446000C94460028
:100040000C9446000C9446000C9446000C94460018
:100050000C9446000C9446000C9446000C94460008
:100060000C9446000C94460011241FBECFEFD8E03C
:10007000DEBFCDBF11E0A0E0B1E001C01D92A6320D
:10008000B107E1F70E946F010C94A0010C940000ED
:100090008AB18C638AB98BB18BB9089521E030E0C5
:1000A00001C0220F8A95EAF78BB1822329F08BB128
:1000B000209528232BB908958BB1822B8BB90895F5
:1000C00082E00E944E0083E00E944E0084E00E9485
:1000D0004E0085E00C944E000C9460000E94B90024
:1000E000813011F45B9A0895823011F45C9A08957E
:1000F000843011F45D9A0895873019F45B985C9808
:100100005D98089584B1817F84B985B18E6085B989
:10011000109202011092000110920101089583B122
:100120008E708E3009F183B18E7090910101891328
:1001300019C0909102019F5F90930201933029F4BE
:1001400080958E70809300010895943641F48095D7
:100150008E70809300018AE58093020108951092C9
:100160000001089580930101109200011092020194
:10017000089588E061E0962F9E7019F4660F815013
:10018000D1F7809100010E9494011092000108951E
:10019000A0E0B7E0BA9FF0011124ED5FFE4F20818F
:1001A0003181232B11F0AF5FF5CFA53039F091836A
:1001B0008083738362835583448316828A2F0895D4
:1001C00097E0899FF0011124ED5FFE4F80819181BE
:1001D000892B49F0118210821382128215821482B7
:1001E000168280E008958FEF0895CF93C0E08C2FA2
:1001F0000E94E000CF5FC530D1F7CF910895FF9204
:100200000F931F93CF93DF93C9E0D1E003E011E098
:10021000F12C8881882379F0D801ED91FC91099522
:10022000888181508883F80124813581232B19F43A
:100230008F2D0E94E000F3942796095F1F4FF5E091
:10024000FF12E7CFDF91CF911F910F91FF9008959B
:100250008FE79EE39093890080938800E1E8F0E0C7
:10026000808188608083808181608083EFE6F0E018
:1002700080818260808308951F920F920FB60F9243
:1002800011248F939F93AF93BF93EF93FF93E3E07A
:10029000F1E0A9E0B1E080819181892B79F0828140
:1002A0009381009741F48C918F5F8C938481958129
:1002B000009721F001C001979383828337961796A8
:1002C00081E0E632F80739F7FF91EF91BF91AF91E6
:1002D0009F918F910F900FBE0F901F901895F894DB
:1002E0000E94F5000E9482000E944800789444E138
:1002F00050E06FEE73E08FE890E00E94C80044EF9A
:1003000051E060E070E08CE690E00E94C80045E0BB
:1003100050E063E070E08EE690E00E94C8000E942A
:1003200028010E94FF00FDCF991B79E004C0991FAE
:10033000961708F0961B881F7A95C9F7809508953F
:04034000F894FFCF5F
:00000001FF
